{
  "contractName": "Notary",
  "abi": [
    {
      "anonymous": false,
      "inputs": [
        {
          "indexed": true,
          "internalType": "uint256",
          "name": "_nId",
          "type": "uint256"
        }
      ],
      "name": "notaryCreated",
      "type": "event"
    },
    {
      "anonymous": false,
      "inputs": [
        {
          "indexed": true,
          "internalType": "uint256",
          "name": "_userId",
          "type": "uint256"
        }
      ],
      "name": "userCreated",
      "type": "event"
    },
    {
      "inputs": [],
      "name": "notaryCount",
      "outputs": [
        {
          "internalType": "uint256",
          "name": "",
          "type": "uint256"
        }
      ],
      "stateMutability": "view",
      "type": "function",
      "constant": true
    },
    {
      "inputs": [
        {
          "internalType": "uint256",
          "name": "",
          "type": "uint256"
        }
      ],
      "name": "notaryList",
      "outputs": [
        {
          "internalType": "string",
          "name": "username",
          "type": "string"
        },
        {
          "internalType": "string",
          "name": "filename",
          "type": "string"
        },
        {
          "internalType": "string",
          "name": "hash",
          "type": "string"
        },
        {
          "internalType": "string",
          "name": "signature",
          "type": "string"
        },
        {
          "internalType": "string",
          "name": "date",
          "type": "string"
        },
        {
          "internalType": "string",
          "name": "key",
          "type": "string"
        }
      ],
      "stateMutability": "view",
      "type": "function",
      "constant": true
    },
    {
      "inputs": [],
      "name": "userCount",
      "outputs": [
        {
          "internalType": "uint256",
          "name": "",
          "type": "uint256"
        }
      ],
      "stateMutability": "view",
      "type": "function",
      "constant": true
    },
    {
      "inputs": [
        {
          "internalType": "uint256",
          "name": "",
          "type": "uint256"
        }
      ],
      "name": "userList",
      "outputs": [
        {
          "internalType": "string",
          "name": "username",
          "type": "string"
        },
        {
          "internalType": "string",
          "name": "password",
          "type": "string"
        },
        {
          "internalType": "string",
          "name": "phone",
          "type": "string"
        },
        {
          "internalType": "string",
          "name": "email",
          "type": "string"
        },
        {
          "internalType": "string",
          "name": "home_address",
          "type": "string"
        }
      ],
      "stateMutability": "view",
      "type": "function",
      "constant": true
    },
    {
      "inputs": [
        {
          "internalType": "string",
          "name": "uname",
          "type": "string"
        },
        {
          "internalType": "string",
          "name": "pass",
          "type": "string"
        },
        {
          "internalType": "string",
          "name": "phone",
          "type": "string"
        },
        {
          "internalType": "string",
          "name": "emailid",
          "type": "string"
        },
        {
          "internalType": "string",
          "name": "homes_address",
          "type": "string"
        }
      ],
      "name": "saveUser",
      "outputs": [],
      "stateMutability": "nonpayable",
      "type": "function"
    },
    {
      "inputs": [],
      "name": "getUserCount",
      "outputs": [
        {
          "internalType": "uint256",
          "name": "",
          "type": "uint256"
        }
      ],
      "stateMutability": "view",
      "type": "function",
      "constant": true
    },
    {
      "inputs": [
        {
          "internalType": "string",
          "name": "uname",
          "type": "string"
        },
        {
          "internalType": "string",
          "name": "fname",
          "type": "string"
        },
        {
          "internalType": "string",
          "name": "ha",
          "type": "string"
        },
        {
          "internalType": "string",
          "name": "sig",
          "type": "string"
        },
        {
          "internalType": "string",
          "name": "dd",
          "type": "string"
        },
        {
          "internalType": "string",
          "name": "k",
          "type": "string"
        }
      ],
      "name": "RegisterHash",
      "outputs": [],
      "stateMutability": "nonpayable",
      "type": "function"
    },
    {
      "inputs": [
        {
          "internalType": "uint256",
          "name": "i",
          "type": "uint256"
        }
      ],
      "name": "deleteKey",
      "outputs": [],
      "stateMutability": "nonpayable",
      "type": "function"
    },
    {
      "inputs": [],
      "name": "getNotaryCount",
      "outputs": [
        {
          "internalType": "uint256",
          "name": "",
          "type": "uint256"
        }
      ],
      "stateMutability": "view",
      "type": "function",
      "constant": true
    },
    {
      "inputs": [
        {
          "internalType": "uint256",
          "name": "i",
          "type": "uint256"
        }
      ],
      "name": "getUsername",
      "outputs": [
        {
          "internalType": "string",
          "name": "",
          "type": "string"
        }
      ],
      "stateMutability": "view",
      "type": "function",
      "constant": true
    },
    {
      "inputs": [
        {
          "internalType": "uint256",
          "name": "i",
          "type": "uint256"
        }
      ],
      "name": "getPassword",
      "outputs": [
        {
          "internalType": "string",
          "name": "",
          "type": "string"
        }
      ],
      "stateMutability": "view",
      "type": "function",
      "constant": true
    },
    {
      "inputs": [
        {
          "internalType": "uint256",
          "name": "i",
          "type": "uint256"
        }
      ],
      "name": "getPhone",
      "outputs": [
        {
          "internalType": "string",
          "name": "",
          "type": "string"
        }
      ],
      "stateMutability": "view",
      "type": "function",
      "constant": true
    },
    {
      "inputs": [
        {
          "internalType": "uint256",
          "name": "i",
          "type": "uint256"
        }
      ],
      "name": "getEmail",
      "outputs": [
        {
          "internalType": "string",
          "name": "",
          "type": "string"
        }
      ],
      "stateMutability": "view",
      "type": "function",
      "constant": true
    },
    {
      "inputs": [
        {
          "internalType": "uint256",
          "name": "i",
          "type": "uint256"
        }
      ],
      "name": "getAddress",
      "outputs": [
        {
          "internalType": "string",
          "name": "",
          "type": "string"
        }
      ],
      "stateMutability": "view",
      "type": "function",
      "constant": true
    },
    {
      "inputs": [
        {
          "internalType": "uint256",
          "name": "i",
          "type": "uint256"
        }
      ],
      "name": "getHashcode",
      "outputs": [
        {
          "internalType": "string",
          "name": "",
          "type": "string"
        }
      ],
      "stateMutability": "view",
      "type": "function",
      "constant": true
    },
    {
      "inputs": [
        {
          "internalType": "uint256",
          "name": "i",
          "type": "uint256"
        }
      ],
      "name": "getOwner",
      "outputs": [
        {
          "internalType": "string",
          "name": "",
          "type": "string"
        }
      ],
      "stateMutability": "view",
      "type": "function",
      "constant": true
    },
    {
      "inputs": [
        {
          "internalType": "uint256",
          "name": "i",
          "type": "uint256"
        }
      ],
      "name": "getFilename",
      "outputs": [
        {
          "internalType": "string",
          "name": "",
          "type": "string"
        }
      ],
      "stateMutability": "view",
      "type": "function",
      "constant": true
    },
    {
      "inputs": [
        {
          "internalType": "uint256",
          "name": "i",
          "type": "uint256"
        }
      ],
      "name": "getSignature",
      "outputs": [
        {
          "internalType": "string",
          "name": "",
          "type": "string"
        }
      ],
      "stateMutability": "view",
      "type": "function",
      "constant": true
    },
    {
      "inputs": [
        {
          "internalType": "uint256",
          "name": "i",
          "type": "uint256"
        }
      ],
      "name": "getDate",
      "outputs": [
        {
          "internalType": "string",
          "name": "",
          "type": "string"
        }
      ],
      "stateMutability": "view",
      "type": "function",
      "constant": true
    },
    {
      "inputs": [
        {
          "internalType": "uint256",
          "name": "i",
          "type": "uint256"
        }
      ],
      "name": "getKey",
      "outputs": [
        {
          "internalType": "string",
          "name": "",
          "type": "string"
        }
      ],
      "stateMutability": "view",
      "type": "function",
      "constant": true
    }
  ],
  "bytecode": "0x608060405260008055600060025534801561001957600080fd5b50613300806100296000396000f3fe608060405234801561001057600080fd5b5060043610610149576000357c0100000000000000000000000000000000000000000000000000000000900480639f4216e8116100ca578063c41a360a1161008e578063c41a360a1461028a578063e901185e1461029d578063e9a6f346146102b0578063f18d18cc146102c3578063f38c6bb6146102d657600080fd5b80639f4216e814610213578063b2709a7e14610237578063b5cb15f71461025c578063b93f9b0a14610264578063bb5b27e11461027757600080fd5b8063318caea611610111578063318caea6146101c9578063510c7b2f146101dc57806382c8d693146101e45780638873944b146101ed578063972fe8bc1461020057600080fd5b806302a569e61461014e57806307973ccf146101775780632b57298b1461018e5780632e7d44b5146101a15780632f5e9eb3146101b4575b600080fd5b61016161015c366004612e42565b6102e9565b60405161016e9190612ea8565b60405180910390f35b61018060005481565b60405190815260200161016e565b61016161019c366004612e42565b610683565b6101616101af366004612e42565b610a1d565b6101c76101c2366004612e42565b610d25565b005b6101c76101d7366004612f7e565b610d7f565b600254610180565b61018060025481565b6101616101fb366004612e42565b610eab565b61016161020e366004612e42565b6111b7565b610226610221366004612e42565b611431565b60405161016e959493929190613073565b61024a610245366004612e42565b611707565b60405161016e969594939291906130e0565b600054610180565b610161610272366004612e42565b611a6b565b610161610285366004612e42565b611ce5565b610161610298366004612e42565b61207f565b6101616102ab366004612e42565b612417565b6101c76102be366004613162565b6127b1565b6101616102d1366004612e42565b6128b5565b6101616102e4366004612e42565b612b2f565b60606000600360008481526020019081526020016000206040518060c001604052908160008201805461031b90613234565b80601f016020809104026020016040519081016040528092919081815260200182805461034790613234565b80156103945780601f1061036957610100808354040283529160200191610394565b820191906000526020600020905b81548152906001019060200180831161037757829003601f168201915b505050505081526020016001820180546103ad90613234565b80601f01602080910402602001604051908101604052809291908181526020018280546103d990613234565b80156104265780601f106103fb57610100808354040283529160200191610426565b820191906000526020600020905b81548152906001019060200180831161040957829003601f168201915b5050505050815260200160028201805461043f90613234565b80601f016020809104026020016040519081016040528092919081815260200182805461046b90613234565b80156104b85780601f1061048d576101008083540402835291602001916104b8565b820191906000526020600020905b81548152906001019060200180831161049b57829003601f168201915b505050505081526020016003820180546104d190613234565b80601f01602080910402602001604051908101604052809291908181526020018280546104fd90613234565b801561054a5780601f1061051f5761010080835404028352916020019161054a565b820191906000526020600020905b81548152906001019060200180831161052d57829003601f168201915b5050505050815260200160048201805461056390613234565b80601f016020809104026020016040519081016040528092919081815260200182805461058f90613234565b80156105dc5780601f106105b1576101008083540402835291602001916105dc565b820191906000526020600020905b8154815290600101906020018083116105bf57829003601f168201915b505050505081526020016005820180546105f590613234565b80601f016020809104026020016040519081016040528092919081815260200182805461062190613234565b801561066e5780601f106106435761010080835404028352916020019161066e565b820191906000526020600020905b81548152906001019060200180831161065157829003601f168201915b50505091909252505050606001519392505050565b60606000600360008481526020019081526020016000206040518060c00160405290816000820180546106b590613234565b80601f01602080910402602001604051908101604052809291908181526020018280546106e190613234565b801561072e5780601f106107035761010080835404028352916020019161072e565b820191906000526020600020905b81548152906001019060200180831161071157829003601f168201915b5050505050815260200160018201805461074790613234565b80601f016020809104026020016040519081016040528092919081815260200182805461077390613234565b80156107c05780601f10610795576101008083540402835291602001916107c0565b820191906000526020600020905b8154815290600101906020018083116107a357829003601f168201915b505050505081526020016002820180546107d990613234565b80601f016020809104026020016040519081016040528092919081815260200182805461080590613234565b80156108525780601f1061082757610100808354040283529160200191610852565b820191906000526020600020905b81548152906001019060200180831161083557829003601f168201915b5050505050815260200160038201805461086b90613234565b80601f016020809104026020016040519081016040528092919081815260200182805461089790613234565b80156108e45780601f106108b9576101008083540402835291602001916108e4565b820191906000526020600020905b8154815290600101906020018083116108c757829003601f168201915b505050505081526020016004820180546108fd90613234565b80601f016020809104026020016040519081016040528092919081815260200182805461092990613234565b80156109765780601f1061094b57610100808354040283529160200191610976565b820191906000526020600020905b81548152906001019060200180831161095957829003601f168201915b5050505050815260200160058201805461098f90613234565b80601f01602080910402602001604051908101604052809291908181526020018280546109bb90613234565b8015610a085780601f106109dd57610100808354040283529160200191610a08565b820191906000526020600020905b8154815290600101906020018083116109eb57829003601f168201915b50505091909252505050608001519392505050565b60606000600160008481526020019081526020016000206040518060a0016040529081600082018054610a4f90613234565b80601f0160208091040260200160405190810160405280929190818152602001828054610a7b90613234565b8015610ac85780601f10610a9d57610100808354040283529160200191610ac8565b820191906000526020600020905b815481529060010190602001808311610aab57829003601f168201915b50505050508152602001600182018054610ae190613234565b80601f0160208091040260200160405190810160405280929190818152602001828054610b0d90613234565b8015610b5a5780601f10610b2f57610100808354040283529160200191610b5a565b820191906000526020600020905b815481529060010190602001808311610b3d57829003601f168201915b50505050508152602001600282018054610b7390613234565b80601f0160208091040260200160405190810160405280929190818152602001828054610b9f90613234565b8015610bec5780601f10610bc157610100808354040283529160200191610bec565b820191906000526020600020905b815481529060010190602001808311610bcf57829003601f168201915b50505050508152602001600382018054610c0590613234565b80601f0160208091040260200160405190810160405280929190818152602001828054610c3190613234565b8015610c7e5780601f10610c5357610100808354040283529160200191610c7e565b820191906000526020600020905b815481529060010190602001808311610c6157829003601f168201915b50505050508152602001600482018054610c9790613234565b80601f0160208091040260200160405190810160405280929190818152602001828054610cc390613234565b8015610d105780601f10610ce557610100808354040283529160200191610d10565b820191906000526020600020905b815481529060010190602001808311610cf357829003601f168201915b50505091909252505050604001519392505050565b604080518082018252600681527f44656c6574650000000000000000000000000000000000000000000000000000602080830191825260008581526003909152929092209051610d7b9260029092019190612da9565b5050565b6040805160c0810182528781526020808201889052818301879052606082018690526080820185905260a08201849052600254600090815260038252929092208151805192939192610dd49284920190612da9565b506020828101518051610ded9260018501920190612da9565b5060408201518051610e09916002840191602090910190612da9565b5060608201518051610e25916003840191602090910190612da9565b5060808201518051610e41916004840191602090910190612da9565b5060a08201518051610e5d916005840191602090910190612da9565b50506002546040519091507fe17873a8e15a5e62735e9cafe068a97d458324cde5b41b4fba710acfd61cdcce90600090a260028054906000610e9e83613288565b9190505550505050505050565b60606000600360008481526020019081526020016000206040518060c0016040529081600082018054610edd90613234565b80601f0160208091040260200160405190810160405280929190818152602001828054610f0990613234565b8015610f565780601f10610f2b57610100808354040283529160200191610f56565b820191906000526020600020905b815481529060010190602001808311610f3957829003601f168201915b50505050508152602001600182018054610f6f90613234565b80601f0160208091040260200160405190810160405280929190818152602001828054610f9b90613234565b8015610fe85780601f10610fbd57610100808354040283529160200191610fe8565b820191906000526020600020905b815481529060010190602001808311610fcb57829003601f168201915b5050505050815260200160028201805461100190613234565b80601f016020809104026020016040519081016040528092919081815260200182805461102d90613234565b801561107a5780601f1061104f5761010080835404028352916020019161107a565b820191906000526020600020905b81548152906001019060200180831161105d57829003601f168201915b5050505050815260200160038201805461109390613234565b80601f01602080910402602001604051908101604052809291908181526020018280546110bf90613234565b801561110c5780601f106110e15761010080835404028352916020019161110c565b820191906000526020600020905b8154815290600101906020018083116110ef57829003601f168201915b5050505050815260200160048201805461112590613234565b80601f016020809104026020016040519081016040528092919081815260200182805461115190613234565b801561119e5780601f106111735761010080835404028352916020019161119e565b820191906000526020600020905b81548152906001019060200180831161118157829003601f168201915b50505050508152602001600582018054610c9790613234565b60606000600160008481526020019081526020016000206040518060a00160405290816000820180546111e990613234565b80601f016020809104026020016040519081016040528092919081815260200182805461121590613234565b80156112625780601f1061123757610100808354040283529160200191611262565b820191906000526020600020905b81548152906001019060200180831161124557829003601f168201915b5050505050815260200160018201805461127b90613234565b80601f01602080910402602001604051908101604052809291908181526020018280546112a790613234565b80156112f45780601f106112c9576101008083540402835291602001916112f4565b820191906000526020600020905b8154815290600101906020018083116112d757829003601f168201915b5050505050815260200160028201805461130d90613234565b80601f016020809104026020016040519081016040528092919081815260200182805461133990613234565b80156113865780601f1061135b57610100808354040283529160200191611386565b820191906000526020600020905b81548152906001019060200180831161136957829003601f168201915b5050505050815260200160038201805461139f90613234565b80601f01602080910402602001604051908101604052809291908181526020018280546113cb90613234565b80156114185780601f106113ed57610100808354040283529160200191611418565b820191906000526020600020905b8154815290600101906020018083116113fb57829003601f168201915b505050505081526020016004820180546105f590613234565b60016020526000908152604090208054819061144c90613234565b80601f016020809104026020016040519081016040528092919081815260200182805461147890613234565b80156114c55780601f1061149a576101008083540402835291602001916114c5565b820191906000526020600020905b8154815290600101906020018083116114a857829003601f168201915b5050505050908060010180546114da90613234565b80601f016020809104026020016040519081016040528092919081815260200182805461150690613234565b80156115535780601f1061152857610100808354040283529160200191611553565b820191906000526020600020905b81548152906001019060200180831161153657829003601f168201915b50505050509080600201805461156890613234565b80601f016020809104026020016040519081016040528092919081815260200182805461159490613234565b80156115e15780601f106115b6576101008083540402835291602001916115e1565b820191906000526020600020905b8154815290600101906020018083116115c457829003601f168201915b5050505050908060030180546115f690613234565b80601f016020809104026020016040519081016040528092919081815260200182805461162290613234565b801561166f5780601f106116445761010080835404028352916020019161166f565b820191906000526020600020905b81548152906001019060200180831161165257829003601f168201915b50505050509080600401805461168490613234565b80601f01602080910402602001604051908101604052809291908181526020018280546116b090613234565b80156116fd5780601f106116d2576101008083540402835291602001916116fd565b820191906000526020600020905b8154815290600101906020018083116116e057829003601f168201915b5050505050905085565b60036020526000908152604090208054819061172290613234565b80601f016020809104026020016040519081016040528092919081815260200182805461174e90613234565b801561179b5780601f106117705761010080835404028352916020019161179b565b820191906000526020600020905b81548152906001019060200180831161177e57829003601f168201915b5050505050908060010180546117b090613234565b80601f01602080910402602001604051908101604052809291908181526020018280546117dc90613234565b80156118295780601f106117fe57610100808354040283529160200191611829565b820191906000526020600020905b81548152906001019060200180831161180c57829003601f168201915b50505050509080600201805461183e90613234565b80601f016020809104026020016040519081016040528092919081815260200182805461186a90613234565b80156118b75780601f1061188c576101008083540402835291602001916118b7565b820191906000526020600020905b81548152906001019060200180831161189a57829003601f168201915b5050505050908060030180546118cc90613234565b80601f01602080910402602001604051908101604052809291908181526020018280546118f890613234565b80156119455780601f1061191a57610100808354040283529160200191611945565b820191906000526020600020905b81548152906001019060200180831161192857829003601f168201915b50505050509080600401805461195a90613234565b80601f016020809104026020016040519081016040528092919081815260200182805461198690613234565b80156119d35780601f106119a8576101008083540402835291602001916119d3565b820191906000526020600020905b8154815290600101906020018083116119b657829003601f168201915b5050505050908060050180546119e890613234565b80601f0160208091040260200160405190810160405280929190818152602001828054611a1490613234565b8015611a615780601f10611a3657610100808354040283529160200191611a61565b820191906000526020600020905b815481529060010190602001808311611a4457829003601f168201915b5050505050905086565b60606000600160008481526020019081526020016000206040518060a0016040529081600082018054611a9d90613234565b80601f0160208091040260200160405190810160405280929190818152602001828054611ac990613234565b8015611b165780601f10611aeb57610100808354040283529160200191611b16565b820191906000526020600020905b815481529060010190602001808311611af957829003601f168201915b50505050508152602001600182018054611b2f90613234565b80601f0160208091040260200160405190810160405280929190818152602001828054611b5b90613234565b8015611ba85780601f10611b7d57610100808354040283529160200191611ba8565b820191906000526020600020905b815481529060010190602001808311611b8b57829003601f168201915b50505050508152602001600282018054611bc190613234565b80601f0160208091040260200160405190810160405280929190818152602001828054611bed90613234565b8015611c3a5780601f10611c0f57610100808354040283529160200191611c3a565b820191906000526020600020905b815481529060010190602001808311611c1d57829003601f168201915b50505050508152602001600382018054611c5390613234565b80601f0160208091040260200160405190810160405280929190818152602001828054611c7f90613234565b8015611ccc5780601f10611ca157610100808354040283529160200191611ccc565b820191906000526020600020905b815481529060010190602001808311611caf57829003601f168201915b5050505050815260200160048201805461098f90613234565b60606000600360008481526020019081526020016000206040518060c0016040529081600082018054611d1790613234565b80601f0160208091040260200160405190810160405280929190818152602001828054611d4390613234565b8015611d905780601f10611d6557610100808354040283529160200191611d90565b820191906000526020600020905b815481529060010190602001808311611d7357829003601f168201915b50505050508152602001600182018054611da990613234565b80601f0160208091040260200160405190810160405280929190818152602001828054611dd590613234565b8015611e225780601f10611df757610100808354040283529160200191611e22565b820191906000526020600020905b815481529060010190602001808311611e0557829003601f168201915b50505050508152602001600282018054611e3b90613234565b80601f0160208091040260200160405190810160405280929190818152602001828054611e6790613234565b8015611eb45780601f10611e8957610100808354040283529160200191611eb4565b820191906000526020600020905b815481529060010190602001808311611e9757829003601f168201915b50505050508152602001600382018054611ecd90613234565b80601f0160208091040260200160405190810160405280929190818152602001828054611ef990613234565b8015611f465780601f10611f1b57610100808354040283529160200191611f46565b820191906000526020600020905b815481529060010190602001808311611f2957829003601f168201915b50505050508152602001600482018054611f5f90613234565b80601f0160208091040260200160405190810160405280929190818152602001828054611f8b90613234565b8015611fd85780601f10611fad57610100808354040283529160200191611fd8565b820191906000526020600020905b815481529060010190602001808311611fbb57829003601f168201915b50505050508152602001600582018054611ff190613234565b80601f016020809104026020016040519081016040528092919081815260200182805461201d90613234565b801561206a5780601f1061203f5761010080835404028352916020019161206a565b820191906000526020600020905b81548152906001019060200180831161204d57829003601f168201915b5050509190925250505060a001519392505050565b60606000600360008481526020019081526020016000206040518060c00160405290816000820180546120b190613234565b80601f01602080910402602001604051908101604052809291908181526020018280546120dd90613234565b801561212a5780601f106120ff5761010080835404028352916020019161212a565b820191906000526020600020905b81548152906001019060200180831161210d57829003601f168201915b5050505050815260200160018201805461214390613234565b80601f016020809104026020016040519081016040528092919081815260200182805461216f90613234565b80156121bc5780601f10612191576101008083540402835291602001916121bc565b820191906000526020600020905b81548152906001019060200180831161219f57829003601f168201915b505050505081526020016002820180546121d590613234565b80601f016020809104026020016040519081016040528092919081815260200182805461220190613234565b801561224e5780601f106122235761010080835404028352916020019161224e565b820191906000526020600020905b81548152906001019060200180831161223157829003601f168201915b5050505050815260200160038201805461226790613234565b80601f016020809104026020016040519081016040528092919081815260200182805461229390613234565b80156122e05780601f106122b5576101008083540402835291602001916122e0565b820191906000526020600020905b8154815290600101906020018083116122c357829003601f168201915b505050505081526020016004820180546122f990613234565b80601f016020809104026020016040519081016040528092919081815260200182805461232590613234565b80156123725780601f1061234757610100808354040283529160200191612372565b820191906000526020600020905b81548152906001019060200180831161235557829003601f168201915b5050505050815260200160058201805461238b90613234565b80601f01602080910402602001604051908101604052809291908181526020018280546123b790613234565b80156124045780601f106123d957610100808354040283529160200191612404565b820191906000526020600020905b8154815290600101906020018083116123e757829003601f168201915b5050509190925250509051949350505050565b60606000600360008481526020019081526020016000206040518060c001604052908160008201805461244990613234565b80601f016020809104026020016040519081016040528092919081815260200182805461247590613234565b80156124c25780601f10612497576101008083540402835291602001916124c2565b820191906000526020600020905b8154815290600101906020018083116124a557829003601f168201915b505050505081526020016001820180546124db90613234565b80601f016020809104026020016040519081016040528092919081815260200182805461250790613234565b80156125545780601f1061252957610100808354040283529160200191612554565b820191906000526020600020905b81548152906001019060200180831161253757829003601f168201915b5050505050815260200160028201805461256d90613234565b80601f016020809104026020016040519081016040528092919081815260200182805461259990613234565b80156125e65780601f106125bb576101008083540402835291602001916125e6565b820191906000526020600020905b8154815290600101906020018083116125c957829003601f168201915b505050505081526020016003820180546125ff90613234565b80601f016020809104026020016040519081016040528092919081815260200182805461262b90613234565b80156126785780601f1061264d57610100808354040283529160200191612678565b820191906000526020600020905b81548152906001019060200180831161265b57829003601f168201915b5050505050815260200160048201805461269190613234565b80601f01602080910402602001604051908101604052809291908181526020018280546126bd90613234565b801561270a5780601f106126df5761010080835404028352916020019161270a565b820191906000526020600020905b8154815290600101906020018083116126ed57829003601f168201915b5050505050815260200160058201805461272390613234565b80601f016020809104026020016040519081016040528092919081815260200182805461274f90613234565b801561279c5780601f106127715761010080835404028352916020019161279c565b820191906000526020600020905b81548152906001019060200180831161277f57829003601f168201915b50505091909252505050602001519392505050565b6040805160a08101825286815260208082018790528183018690526060820185905260808201849052600080548152600182529290922081518051929391926127fd9284920190612da9565b5060208281015180516128169260018501920190612da9565b5060408201518051612832916002840191602090910190612da9565b506060820151805161284e916003840191602090910190612da9565b506080820151805161286a916004840191602090910190612da9565b5050600080546040519092507f1ed675bb725b3a8b0434b9ee956fe05e4c0e79f9dc67c3f1a717a5bb1fd88fd39190a26000805490806128a983613288565b91905055505050505050565b60606000600160008481526020019081526020016000206040518060a00160405290816000820180546128e790613234565b80601f016020809104026020016040519081016040528092919081815260200182805461291390613234565b80156129605780601f1061293557610100808354040283529160200191612960565b820191906000526020600020905b81548152906001019060200180831161294357829003601f168201915b5050505050815260200160018201805461297990613234565b80601f01602080910402602001604051908101604052809291908181526020018280546129a590613234565b80156129f25780601f106129c7576101008083540402835291602001916129f2565b820191906000526020600020905b8154815290600101906020018083116129d557829003601f168201915b50505050508152602001600282018054612a0b90613234565b80601f0160208091040260200160405190810160405280929190818152602001828054612a3790613234565b8015612a845780601f10612a5957610100808354040283529160200191612a84565b820191906000526020600020905b815481529060010190602001808311612a6757829003601f168201915b50505050508152602001600382018054612a9d90613234565b80601f0160208091040260200160405190810160405280929190818152602001828054612ac990613234565b8015612b165780601f10612aeb57610100808354040283529160200191612b16565b820191906000526020600020905b815481529060010190602001808311612af957829003601f168201915b5050505050815260200160048201805461238b90613234565b60606000600160008481526020019081526020016000206040518060a0016040529081600082018054612b6190613234565b80601f0160208091040260200160405190810160405280929190818152602001828054612b8d90613234565b8015612bda5780601f10612baf57610100808354040283529160200191612bda565b820191906000526020600020905b815481529060010190602001808311612bbd57829003601f168201915b50505050508152602001600182018054612bf390613234565b80601f0160208091040260200160405190810160405280929190818152602001828054612c1f90613234565b8015612c6c5780601f10612c4157610100808354040283529160200191612c6c565b820191906000526020600020905b815481529060010190602001808311612c4f57829003601f168201915b50505050508152602001600282018054612c8590613234565b80601f0160208091040260200160405190810160405280929190818152602001828054612cb190613234565b8015612cfe5780601f10612cd357610100808354040283529160200191612cfe565b820191906000526020600020905b815481529060010190602001808311612ce157829003601f168201915b50505050508152602001600382018054612d1790613234565b80601f0160208091040260200160405190810160405280929190818152602001828054612d4390613234565b8015612d905780601f10612d6557610100808354040283529160200191612d90565b820191906000526020600020905b815481529060010190602001808311612d7357829003601f168201915b5050505050815260200160048201805461272390613234565b828054612db590613234565b90600052602060002090601f016020900481019282612dd75760008555612e1d565b82601f10612df057805160ff1916838001178555612e1d565b82800160010185558215612e1d579182015b82811115612e1d578251825591602001919060010190612e02565b50612e29929150612e2d565b5090565b5b80821115612e295760008155600101612e2e565b600060208284031215612e5457600080fd5b5035919050565b6000815180845260005b81811015612e8157602081850181015186830182015201612e65565b81811115612e93576000602083870101525b50601f01601f19169290920160200192915050565b602081526000612ebb6020830184612e5b565b9392505050565b7f4e487b7100000000000000000000000000000000000000000000000000000000600052604160045260246000fd5b600082601f830112612f0257600080fd5b813567ffffffffffffffff80821115612f1d57612f1d612ec2565b604051601f8301601f19908116603f01168101908282118183101715612f4557612f45612ec2565b81604052838152866020858801011115612f5e57600080fd5b836020870160208301376000602085830101528094505050505092915050565b60008060008060008060c08789031215612f9757600080fd5b863567ffffffffffffffff80821115612faf57600080fd5b612fbb8a838b01612ef1565b97506020890135915080821115612fd157600080fd5b612fdd8a838b01612ef1565b96506040890135915080821115612ff357600080fd5b612fff8a838b01612ef1565b9550606089013591508082111561301557600080fd5b6130218a838b01612ef1565b9450608089013591508082111561303757600080fd5b6130438a838b01612ef1565b935060a089013591508082111561305957600080fd5b5061306689828a01612ef1565b9150509295509295509295565b60a08152600061308660a0830188612e5b565b82810360208401526130988188612e5b565b905082810360408401526130ac8187612e5b565b905082810360608401526130c08186612e5b565b905082810360808401526130d48185612e5b565b98975050505050505050565b60c0815260006130f360c0830189612e5b565b82810360208401526131058189612e5b565b905082810360408401526131198188612e5b565b9050828103606084015261312d8187612e5b565b905082810360808401526131418186612e5b565b905082810360a08401526131558185612e5b565b9998505050505050505050565b600080600080600060a0868803121561317a57600080fd5b853567ffffffffffffffff8082111561319257600080fd5b61319e89838a01612ef1565b965060208801359150808211156131b457600080fd5b6131c089838a01612ef1565b955060408801359150808211156131d657600080fd5b6131e289838a01612ef1565b945060608801359150808211156131f857600080fd5b61320489838a01612ef1565b9350608088013591508082111561321a57600080fd5b5061322788828901612ef1565b9150509295509295909350565b60028104600182168061324857607f821691505b60208210811415613282577f4e487b7100000000000000000000000000000000000000000000000000000000600052602260045260246000fd5b50919050565b60006000198214156132c3577f4e487b7100000000000000000000000000000000000000000000000000000000600052601160045260246000fd5b506001019056fea2646970667358221220ea6ebff2dccac19d8e8bd6f64490d14cecf103e67271ce216a1edd66be488e8e64736f6c634300080b0033",
  "immutableReferences": {},
  "source": "pragma solidity >= 0.8.11 <= 0.8.11;\r\npragma experimental ABIEncoderV2;\r\n//evault solidity code\r\ncontract Notary {\r\n\r\n    uint public userCount = 0; \r\n    mapping(uint => user) public userList; \r\n     struct user\r\n     {\r\n       string username;\r\n       string password;\r\n       string phone;\r\n       string email;\r\n       string home_address;      \r\n     }\r\n \r\n   // events \r\n   event userCreated(uint indexed _userId);\r\n   \r\n   //function  to save user details to Blockchain\r\n   function saveUser(string memory uname, string memory pass, string memory phone, string memory emailid, string memory homes_address) public {\r\n      userList[userCount] = user(uname, pass, phone, emailid, homes_address);\r\n      emit userCreated(userCount);\r\n      userCount++;\r\n    }\r\n\r\n     //get user count\r\n    function getUserCount()  public view returns (uint) {\r\n          return  userCount;\r\n    }\r\n\r\n    uint public notaryCount = 0; \r\n    mapping(uint => notary) public notaryList; \r\n     struct notary\r\n     {\r\n       string username;\r\n       string filename;\r\n       string hash;   \r\n       string signature;\r\n       string date;\r\n       string key;\r\n     }\r\n \r\n   // events \r\n   event notaryCreated(uint indexed _nId);\r\n   \r\n   //function  to save notary details to Blockchain\r\n   function RegisterHash(string memory uname, string memory fname, string memory ha, string memory sig, string memory dd, string memory k) public {\r\n      notaryList[notaryCount] = notary(uname, fname, ha, sig, dd, k);\r\n      emit notaryCreated(notaryCount);\r\n      notaryCount++;\r\n    }\r\n\r\n    function deleteKey(uint i) public { \r\n      notaryList[i].hash = \"Delete\";\r\n   }\r\n\r\n    //get notary count\r\n    function getNotaryCount()  public view returns (uint) {\r\n          return notaryCount;\r\n    }\r\n\r\n   function getUsername(uint i) public view returns (string memory) {\r\n        user memory usr = userList[i];\r\n\treturn usr.username;\r\n    }\r\n\r\n    function getPassword(uint i) public view returns (string memory) {\r\n        user memory usr = userList[i];\r\n\treturn usr.password;\r\n    }\r\n\r\n    function getPhone(uint i) public view returns (string memory) {\r\n        user memory usr = userList[i];\r\n\treturn usr.phone;\r\n    }\r\n\r\n   \r\n    function getEmail(uint i) public view returns (string memory) {\r\n        user memory usr = userList[i];\r\n\treturn usr.email;\r\n    }\r\n\r\n    function getAddress(uint i) public view returns (string memory) {\r\n        user memory usr = userList[i];\r\n\treturn usr.home_address;\r\n    }\r\n\r\n     function getHashcode(uint i) public view returns (string memory) {\r\n        notary memory nl = notaryList[i];\r\n\treturn nl.hash;\r\n    }\r\n\r\n    function getOwner(uint i) public view returns (string memory) {\r\n        notary memory nl = notaryList[i];\r\n\treturn nl.username;\r\n    }\r\n\r\n    function getFilename(uint i) public view returns (string memory) {\r\n        notary memory nl = notaryList[i];\r\n\treturn nl.filename;\r\n    }\r\n\r\n    function getSignature(uint i) public view returns (string memory) {\r\n        notary memory nl = notaryList[i];\r\n\treturn nl.signature;\r\n    }\r\n\r\n    function getDate(uint i) public view returns (string memory) {\r\n        notary memory nl = notaryList[i];\r\n\treturn nl.date;\r\n    }    \r\n\r\n    function getKey(uint i) public view returns (string memory) {\r\n        notary memory nl = notaryList[i];\r\n\treturn nl.key;\r\n    }    \r\n}",
  "sourcePath": "C:\\Users\\Admin\\Desktop\\Blockchain\\hello-eth\\node_modules\\.bin\\contracts\\Notary.sol",
  "compiler": {
    "name": "solc",
    "version": "0.8.11+commit.d7f03943.Emscripten.clang"
  },
  "schemaVersion": "3.4.4",
  "updatedAt": "2024-03-24T17:21:12.743Z",
  "networkType": "ethereum",
  "devdoc": {
    "kind": "dev",
    "methods": {},
    "version": 1
  },
  "userdoc": {
    "kind": "user",
    "methods": {},
    "version": 1
  }
}